:020000040000fa
:080000000002040000000000f2
:020000040000fa
:040008007e03000073
:020000040000fa
:04000c007e0300006f
:020000040000fa
:040010007e0300006b
:020000040000fa
:040014007e03000067
:020000040000fa
:040018007e03000063
:020000040000fa
:04001c007e0300005f
:020000040000fa
:040020007e0300005b
:020000040000fa
:040024007e03000057
:020000040000fa
:040028007e03000053
:020000040000fa
:04002c007e0300004f
:020000040000fa
:040030007e0300004b
:020000040000fa
:040034007e03000047
:020000040000fa
:040038007e03000043
:020000040000fa
:04003c007e0300003f
:020000040000fa
:040040007e0300003b
:020000040000fa
:040044006403000051
:020000040000fa
:040048007e03000033
:020000040000fa
:04004c007e0300002f
:020000040000fa
:040050007e0300002b
:020000040000fa
:040054007e03000027
:020000040000fa
:040058007e03000023
:020000040000fa
:04005c007e0300001f
:020000040000fa
:040060007e0300001b
:020000040000fa
:040064007e03000017
:020000040000fa
:040068007e03000013
:020000040000fa
:04006c007e0300000f
:020000040000fa
:040070007e0300000b
:020000040000fa
:04007400c8020000be
:020000040000fa
:040078007e03000003
:020000040000fa
:04007c007e030000ff
:020000040000fa
:040080007e030000fb
:020000040000fa
:040084007e030000f7
:020000040000fa
:040088007e030000f3
:020000040000fa
:04008c007e030000ef
:020000040000fa
:040090007e030000eb
:020000040000fa
:040094007e030000e7
:020000040000fa
:040098007e030000e3
:020000040000fa
:04009c007e030000df
:020000040000fa
:0400a0007e030000db
:020000040000fa
:0400a40076030000df
:020000040000fa
:0400a8007e030000d3
:020000040000fa
:0400ac007e030000cf
:020000040000fa
:0400b0007e030000cb
:020000040000fa
:0400b4007e030000c7
:020000040000fa
:0400b8007e030000c3
:020000040000fa
:0400bc007e030000bf
:020000040000fa
:0400c0007e030000bb
:020000040000fa
:0400c4007e030000b7
:020000040000fa
:0400c8007e030000b3
:020000040000fa
:0400cc007e030000af
:020000040000fa
:0400d0007e030000ab
:020000040000fa
:0400d4007e030000a7
:020000040000fa
:0400d8007e030000a3
:020000040000fa
:0400dc007e0300009f
:020000040000fa
:0400e0007e0300009b
:020000040000fa
:0400e4007e03000097
:020000040000fa
:0400e8007e03000093
:020000040000fa
:0400ec007e0300008f
:020000040000fa
:0400f0007e0300008b
:020000040000fa
:0400f4007e03000087
:020000040000fa
:0400f8007e03000083
:020000040000fa
:0400fc007e0300007f
:020000040000fa
:040100007e0300007a
:020000040000fa
:040104007e03000076
:020000040000fa
:040108007e03000072
:020000040000fa
:04010c007e0300006e
:020000040000fa
:040110007e0300006a
:020000040000fa
:040114007e03000066
:020000040000fa
:040118007e03000062
:020000040000fa
:04011c007e0300005e
:020000040000fa
:040120007e0300005a
:020000040000fa
:040124007e03000056
:020000040000fa
:040128007e03000052
:020000040000fa
:04012c007e0300004e
:020000040000fa
:040130007e0300004a
:020000040000fa
:040134007e03000046
:020000040000fa
:040138007e03000042
:020000040000fa
:04013c007e0300003e
:020000040000fa
:040140007e0300003a
:020000040000fa
:040144007e03000036
:020000040000fa
:040148007e03000032
:020000040000fa
:04014c007e0300002e
:020000040000fa
:040150007e0300002a
:020000040000fa
:040154007e03000026
:020000040000fa
:040158007e03000022
:020000040000fa
:04015c007e0300001e
:020000040000fa
:040208007e03000071
:020000040000fa
:04020c007e0300006d
:020000040000fa
:040210007e03000069
:020000040000fa
:040214007e03000065
:020000040000fa
:040218007e03000061
:020000040000fa
:04021c007e0300005d
:020000040000fa
:040220007e03000059
:020000040000fa
:040224007e03000055
:020000040000fa
:040228007e03000051
:020000040000fa
:04022c007e0300004d
:020000040000fa
:040230007e03000049
:020000040000fa
:040234007e03000045
:020000040000fa
:040238007e03000041
:020000040000fa
:04023c007e0300003d
:020000040000fa
:040240007e03000039
:020000040000fa
:04024400640300004f
:020000040000fa
:040248007e03000031
:020000040000fa
:04024c007e0300002d
:020000040000fa
:040250007e03000029
:020000040000fa
:040254007e03000025
:020000040000fa
:040258007e03000021
:020000040000fa
:04025c007e0300001d
:020000040000fa
:040260007e03000019
:020000040000fa
:040264007e03000015
:020000040000fa
:040268007e03000011
:020000040000fa
:04026c007e0300000d
:020000040000fa
:040270007e03000009
:020000040000fa
:04027400c8020000bc
:020000040000fa
:040278007e03000001
:020000040000fa
:04027c007e030000fd
:020000040000fa
:040280007e030000f9
:020000040000fa
:040284007e030000f5
:020000040000fa
:040288007e030000f1
:020000040000fa
:04028c007e030000ed
:020000040000fa
:040290007e030000e9
:020000040000fa
:040294007e030000e5
:020000040000fa
:040298007e030000e1
:020000040000fa
:04029c007e030000dd
:020000040000fa
:0402a0007e030000d9
:020000040000fa
:0402a40076030000dd
:020000040000fa
:0402a8007e030000d1
:020000040000fa
:0402ac007e030000cd
:020000040000fa
:0402b0007e030000c9
:020000040000fa
:0402b4007e030000c5
:020000040000fa
:0402b8007e030000c1
:020000040000fa
:0402bc007e030000bd
:020000040000fa
:0402c0007e030000b9
:020000040000fa
:0402c4007e030000b5
:020000040000fa
:0402c8007e030000b1
:020000040000fa
:0402cc007e030000ad
:020000040000fa
:0402d0007e030000a9
:020000040000fa
:0402d4007e030000a5
:020000040000fa
:0402d8007e030000a1
:020000040000fa
:0402dc007e0300009d
:020000040000fa
:0402e0007e03000099
:020000040000fa
:0402e4007e03000095
:020000040000fa
:0402e8007e03000091
:020000040000fa
:0402ec007e0300008d
:020000040000fa
:0402f0007e03000089
:020000040000fa
:0402f4007e03000085
:020000040000fa
:0402f8007e03000081
:020000040000fa
:0402fc007e0300007d
:020000040000fa
:040300007e03000078
:020000040000fa
:040304007e03000074
:020000040000fa
:040308007e03000070
:020000040000fa
:04030c007e0300006c
:020000040000fa
:040310007e03000068
:020000040000fa
:040314007e03000064
:020000040000fa
:040318007e03000060
:020000040000fa
:04031c007e0300005c
:020000040000fa
:040320007e03000058
:020000040000fa
:040324007e03000054
:020000040000fa
:040328007e03000050
:020000040000fa
:04032c007e0300004c
:020000040000fa
:040330007e03000048
:020000040000fa
:040334007e03000044
:020000040000fa
:040338007e03000040
:020000040000fa
:04033c007e0300003c
:020000040000fa
:040340007e03000038
:020000040000fa
:040344007e03000034
:020000040000fa
:040348007e03000030
:020000040000fa
:04034c007e0300002c
:020000040000fa
:040350007e03000028
:020000040000fa
:040354007e03000024
:020000040000fa
:040358007e03000020
:020000040000fa
:04035c007e0300001c
:020000040000fa
:10040000af8020000edf20000e01880000000000f9
:10041000000020000000e000020032000001200087
:100420002002880014000700b60007000000e0006a
:1004300003003a0040742000010020000200370051
:100440000000200001002000810f70000100320038
:1004500014000700000020000000e000020032004d
:1004600000000200000000001e0702000000000063
:100470000040da000000fe004440a900a002200075
:100480000000e0000300320000002000a00188000e
:100490004440a800000006008a1f78008b1f7800e7
:1004a0000000060091018800800478000000eb0045
:1004b0001a003700e284440032a0b4009905ba0063
:1004c000e284440032a0b4009906ba00e2844400f9
:1004d00032a0b4000006eb00476fde00fd07b2005b
:1004e000636ce10003003a00ebff07000000eb0043
:1004f0000a003700606ce10004003a00005deb0088
:100500008b05e900fdff3e00040037006168e10053
:10051000010032000086eb000b00070019c7ba008b
:100520001905ba000e04e00003003a000a00e000da
:10053000e0ff3a0000000600fe07b2009e018800be
:100540008a047800f5ff3700395dba008b05e900b1
:100550000c003200295dba008b05e900080032006a
:100560000c00e00003003a00e284440032a0b40032
:10057000f5ff370019ddba008b05e900faff3a00f4
:100580008904e800e184440032a0b40000000600c1
:100590003600f800809fbe00829fbe00849fbe0090
:1005a000869fbe000000fa009660a90000022000ad
:1005b000c501070011c0b300001920000d0207009b
:1005c00080002000c00107000668ef000468ef000b
:1005d00010168000640060000000e00003003a0094
:1005e00010c0b30002e8b7002e003700501680009c
:1005f000700060000000e00003003a0020c0b3007b
:1006000002e8b70027003700101680007000600075
:100610000000e00014003a0030c0b30002e8b70068
:100620008040eb0080bb2000f2010700060037008d
:1006300006c8bf00e14f500003003a0040c0b300bd
:1006400002e8b70004003700101680007000600058
:100650000000e000f6ff3200800020009a01070051
:1006600011e1a9000f003700101680007000600033
:100670000000e0000600320002c8bf00e34f500057
:100680000500320002c8bf00e44f500004003200f1
:100690000268ef000300370000000000010037008f
:1006a000000000008660a9009660a8000080fa00a3
:1006b0004f03be004f02be004f01be004f00be0000
:1006c0003600f90000400600801f78000000fa00a4
:1006d00084e0a90011e1a90010c0b30006e8b7004a
:1006e0000080fa004f007800004006000000fa0089
:1006f00087e0a9000080fa00004006000040da0010
:100700000000fe00000005008000780004003700b3
:100710003104e00002003a00000051000000060031
:10072000010178000108a300f9ff3a008101780077
:1007300031017800f4ef2f00020242000281ea004a
:10074000020162000408280004016100f7ff320082
:1007500083007800010178003104e000fdff3a00d9
:0807600000005100000006003a
:020000040000fa
:100768006d2000003a200000007300000d0a000010
:1007780000300000306d0000203a000020300000fa
:1007880030730000202d00002d200000414c000097
:10079800415200004d0d00000a00000030300000fa
:1007a8006d2000003a20000030300000730d00007a
:0407b8000a00000033
:020000040000fa
:1007bc000000fa00c802a900c822a800cc02a800b8
:1007cc008000280080118800113a8000000027006a
:1007dc008080600000002600808f500003003a00eb
:1007ec00c0002000c011880010003700113a8000b2
:1007fc00000027008080600000002500808f5000e2
:10080c0003003a00c0002000c01188000700370028
:10081c00113a800000002700008060000000e0001a
:10082c0002003a0070062000c0118800000022006f
:10083c009011880087e0a90091058000f0ff280046
:10084c00808060000000230001007000900588008b
:10085c0097e0a80087c0a90091058000f08f2f00b9
:10086c000080600000a0a0009005880097c0a80040
:10087c0031e2a8003342a8000080fa000000060014
:10088c000400fa00004f78000e80e80001087800a0
:10089c000f0037000140fe0001003700000000008f
:1008ac009111800000202000008060000000e0001a
:1008bc00f8ff3a001e00fb00a01188000e80e80033
:1008cc00100078008000e9000e80e8000108780034
:1008dc000e80e800100078000000e000efff3a0006
:1008ec0000000000911180000010200000806000ca
:1008fc000000e000fbff32000080fa000000060060
:10090c000600fa00e4004700804878008040eb00c5
:10091c000e80e800014878008040eb00630047003f
:10092c00014878000040eb00004f78000040eb00dd
:10093c00004f7800180037009e81fb0064004700d0
:10094c00104078000081fb00d0cc2c000010b800c7
:10095c004308de006a00b900000078000000510076
:10096c000040780080407800030047000080e800d9
:10097c000148780064004700104078008080fb003c
:10098c00d0cc2c000008b800c308de00640047007f
:10099c00014878001e4fe8001e407800e14f5000df
:1009ac00e5ff360020c0b300004f78000c00370084
:1009bc001e80fb000000e900800047000e00e800ec
:1009cc008180e800114878000e00e80010407800a3
:1009dc000043b00011002000a9ff07001e4fe900e2
:1009ec001e4078000004e000f1ff3a000080fa009d
:1009fc00000006000400fa008e80e80080087800f1
:100a0c000000eb00000f7800070037000e80e800b4
:100a1c00100078001e0040001040780011002000eb
:100a2c0097ff07001e0fe8000e80e800100078000a
:100a3c0032ff07009e0f5000f4ff31000080fa00d7
:100a4c00000006000000fa0000c8bf00acff070061
:100a5c00403b2800e7ff070001c8bf00a8ff0700c4
:100a6c00903b2800e3ff07000080fa00000006001e
:100a7c000000fa0000c8bf000004e00003003a00c8
:100a8c0001c8bf000004e0000c00320001c8bf0028
:100a9c000004e00006003a00b0c3b30001e8b70060
:100aac0000c8bf000040e90000e8b70003003700b1
:100abc0001c8bf000040e90001e8b70000c8bf0052
:100acc000004e00008003a0001c8bf000004e00088
:100adc0005003a000468ef00d03b2800c5ff070072
:100aec00cd02a80010003700611680000010200015
:100afc000080600000f0a7000000ea000000e900a0
:100b0c004f00de00004078000080fb0061006000b8
:100b1c004800dd00611680000180a100010070001a
:100b2c0060168800c7ff07000080fa00000006006e
:100b3c000000fa00c902a900cd02a900c082a800d9
:100b4c006800a8006000a800c882a8006820a8005f
:100b5c006020a800c042a8006bc0a80063c0a80019
:100b6c0061058000f0ff28008080600000002600f6
:100b7c0001007000600588008660a9009660a800de
:100b8c000080fa00000006000000fa0002c8bf0056
:100b9c00e14f500019003a001400370001c8bf00a3
:100bac000040e80001e8b70001c8bf000081fb006d
:100bbc00908828000010b800c508de00c003200093
:100bcc000088b90000007800000051000040780057
:100bdc0001e8b7009bff070011c0b300001920000b
:100bec0081000700800020003400070002c8bf000d
:100bfc00e14f5000e9ff32002d00370002c8bf0062
:100c0c00e24f500019003a001400370000c8bf0032
:100c1c000040e80000e8b70000c8bf000081fb00fe
:100c2c00908828000010b800c508de00c003200022
:100c3c000088b900000078000000510000407800e6
:100c4c0000e8b7007fff070011c0b30000192000b7
:100c5c0065000700800020001800070002c8bf00d4
:100c6c00e24f5000e9ff32001100370002c8bf000c
:100c7c00e34f500007003a0004c8bf000080fb009f
:100c8c000000e9004f00de000040780004e8b700e7
:100c9c000700370002c8bf00e44f500004003a00c0
:100cac000068ef000168ef00203d280051ff0700ad
:100cbc000268ef000080fa00000006000400fa0051
:100ccc008e80e800800878000e80e8001000780024
:100cdc00e80f500003003a000040eb00004f780092
:100cec00120037000e80e80090007800401f2000b2
:100cfc00808f500003003a0060c6b300004f7800ac
:100d0c000a0037000e80e8009000780000022000f6
:100d1c00808f500003003a0050c5b300004f78009c
:100d2c000200370050c5b300004f7800110280005c
:100d3c00000e20000100700010028800213a800093
:100d4c00f08f2f0000806000203a88001e01fb000d
:100d5c0080072000a109200033742000804978000e
:100d6c00814978008249780012002000600420003c
:100d7c007105200023742000804978008149780097
:100d8c00824978004207a80000000000103a800059
:100d9c00610060000000e000fcff3a0011028000de
:100dac00f0f12f0000806000100288000080fa0033
:100dbc00000006000000fa0011a1a9001061a900b2
:100dcc001021a90031058000f0ff28000080600090
:100ddc0000d0a0003005880094e0a80084e0a900b1
:100dec000080fa00000006000400fa00000f7800f2
:100dfc000e80e800014878001e0078004400dd00f9
:100e0c00600888000621ef0000022000abff0700fd
:100e1c0011e1a8000e80e80010407800e14f50006e
:100e2c0001003a000140fe000080fa0000000600bc
:100e3c000000fa000080eb0060198800ddff07005d
:100e4c003bff07005afe070004c8bf000004e00087
:100e5c000700320006ff070011c0b300803e2000df
:100e6c00e1ff07008000200094ff0700f6ff370029
:0c0e7c000140fe0044ff0700f3ff3700b8
:020000040000fa
:100e88000408000002000000000000000008000044
:100e98000400000000000000060800000200000036
:100ea8000000000008080000020000000000000028
:040eb8000000000036
:020000040000fa
:0200000401f009
:04000000ffffff00ff
:020000040000fa
:0200000401f009
:04000800ffffff00f7
:020000040000fa
:0200000401f009
:04000c0000000000f0
:020000040000fa
:0200000401f009
:040010005300000099
:020000040000fa
:0200000401f009
:0400140040000000a8
:020000040000fa
:0200000401f009
:040018009000000054
:020000040000fa
:0200000401f009
:04001c00c20000001e
:020000040000fa
:0200000401f009
:0400200017000000c5
:00000001FF
