:020000040000fa
:080000000002040000000000f2
:020000040000fa
:0400080040030000b1
:020000040000fa
:04000c0040030000ad
:020000040000fa
:0400100040030000a9
:020000040000fa
:0400140040030000a5
:020000040000fa
:0400180040030000a1
:020000040000fa
:04001c00400300009d
:020000040000fa
:040020004003000099
:020000040000fa
:040024004003000095
:020000040000fa
:040028004003000091
:020000040000fa
:04002c00400300008d
:020000040000fa
:040030004003000089
:020000040000fa
:040034004003000085
:020000040000fa
:040038004003000081
:020000040000fa
:04003c00400300007d
:020000040000fa
:040040004003000079
:020000040000fa
:04004400260300008f
:020000040000fa
:040048004003000071
:020000040000fa
:04004c00400300006d
:020000040000fa
:040050004003000069
:020000040000fa
:040054004003000065
:020000040000fa
:040058004003000061
:020000040000fa
:04005c00400300005d
:020000040000fa
:040060004003000059
:020000040000fa
:040064004003000055
:020000040000fa
:040068004003000051
:020000040000fa
:04006c00400300004d
:020000040000fa
:040070004003000049
:020000040000fa
:04007400c8020000be
:020000040000fa
:040078004003000041
:020000040000fa
:04007c00400300003d
:020000040000fa
:040080004003000039
:020000040000fa
:040084004003000035
:020000040000fa
:040088004003000031
:020000040000fa
:04008c00400300002d
:020000040000fa
:040090004003000029
:020000040000fa
:040094004003000025
:020000040000fa
:040098004003000021
:020000040000fa
:04009c00400300001d
:020000040000fa
:0400a0004003000019
:020000040000fa
:0400a400380300001d
:020000040000fa
:0400a8004003000011
:020000040000fa
:0400ac00400300000d
:020000040000fa
:0400b0004003000009
:020000040000fa
:0400b4004003000005
:020000040000fa
:0400b8004003000001
:020000040000fa
:0400bc0040030000fd
:020000040000fa
:0400c00040030000f9
:020000040000fa
:0400c40040030000f5
:020000040000fa
:0400c80040030000f1
:020000040000fa
:0400cc0040030000ed
:020000040000fa
:0400d00040030000e9
:020000040000fa
:0400d40040030000e5
:020000040000fa
:0400d80040030000e1
:020000040000fa
:0400dc0040030000dd
:020000040000fa
:0400e00040030000d9
:020000040000fa
:0400e40040030000d5
:020000040000fa
:0400e80040030000d1
:020000040000fa
:0400ec0040030000cd
:020000040000fa
:0400f00040030000c9
:020000040000fa
:0400f40040030000c5
:020000040000fa
:0400f80040030000c1
:020000040000fa
:0400fc0040030000bd
:020000040000fa
:0401000040030000b8
:020000040000fa
:0401040040030000b4
:020000040000fa
:0401080040030000b0
:020000040000fa
:04010c0040030000ac
:020000040000fa
:0401100040030000a8
:020000040000fa
:0401140040030000a4
:020000040000fa
:0401180040030000a0
:020000040000fa
:04011c00400300009c
:020000040000fa
:040120004003000098
:020000040000fa
:040124004003000094
:020000040000fa
:040128004003000090
:020000040000fa
:04012c00400300008c
:020000040000fa
:040130004003000088
:020000040000fa
:040134004003000084
:020000040000fa
:040138004003000080
:020000040000fa
:04013c00400300007c
:020000040000fa
:040140004003000078
:020000040000fa
:040144004003000074
:020000040000fa
:040148004003000070
:020000040000fa
:04014c00400300006c
:020000040000fa
:040150004003000068
:020000040000fa
:040154004003000064
:020000040000fa
:040158004003000060
:020000040000fa
:04015c00400300005c
:020000040000fa
:0402080040030000af
:020000040000fa
:04020c0040030000ab
:020000040000fa
:0402100040030000a7
:020000040000fa
:0402140040030000a3
:020000040000fa
:04021800400300009f
:020000040000fa
:04021c00400300009b
:020000040000fa
:040220004003000097
:020000040000fa
:040224004003000093
:020000040000fa
:04022800400300008f
:020000040000fa
:04022c00400300008b
:020000040000fa
:040230004003000087
:020000040000fa
:040234004003000083
:020000040000fa
:04023800400300007f
:020000040000fa
:04023c00400300007b
:020000040000fa
:040240004003000077
:020000040000fa
:04024400260300008d
:020000040000fa
:04024800400300006f
:020000040000fa
:04024c00400300006b
:020000040000fa
:040250004003000067
:020000040000fa
:040254004003000063
:020000040000fa
:04025800400300005f
:020000040000fa
:04025c00400300005b
:020000040000fa
:040260004003000057
:020000040000fa
:040264004003000053
:020000040000fa
:04026800400300004f
:020000040000fa
:04026c00400300004b
:020000040000fa
:040270004003000047
:020000040000fa
:04027400c8020000bc
:020000040000fa
:04027800400300003f
:020000040000fa
:04027c00400300003b
:020000040000fa
:040280004003000037
:020000040000fa
:040284004003000033
:020000040000fa
:04028800400300002f
:020000040000fa
:04028c00400300002b
:020000040000fa
:040290004003000027
:020000040000fa
:040294004003000023
:020000040000fa
:04029800400300001f
:020000040000fa
:04029c00400300001b
:020000040000fa
:0402a0004003000017
:020000040000fa
:0402a400380300001b
:020000040000fa
:0402a800400300000f
:020000040000fa
:0402ac00400300000b
:020000040000fa
:0402b0004003000007
:020000040000fa
:0402b4004003000003
:020000040000fa
:0402b80040030000ff
:020000040000fa
:0402bc0040030000fb
:020000040000fa
:0402c00040030000f7
:020000040000fa
:0402c40040030000f3
:020000040000fa
:0402c80040030000ef
:020000040000fa
:0402cc0040030000eb
:020000040000fa
:0402d00040030000e7
:020000040000fa
:0402d40040030000e3
:020000040000fa
:0402d80040030000df
:020000040000fa
:0402dc0040030000db
:020000040000fa
:0402e00040030000d7
:020000040000fa
:0402e40040030000d3
:020000040000fa
:0402e80040030000cf
:020000040000fa
:0402ec0040030000cb
:020000040000fa
:0402f00040030000c7
:020000040000fa
:0402f40040030000c3
:020000040000fa
:0402f80040030000bf
:020000040000fa
:0402fc0040030000bb
:020000040000fa
:0403000040030000b6
:020000040000fa
:0403040040030000b2
:020000040000fa
:0403080040030000ae
:020000040000fa
:04030c0040030000aa
:020000040000fa
:0403100040030000a6
:020000040000fa
:0403140040030000a2
:020000040000fa
:04031800400300009e
:020000040000fa
:04031c00400300009a
:020000040000fa
:040320004003000096
:020000040000fa
:040324004003000092
:020000040000fa
:04032800400300008e
:020000040000fa
:04032c00400300008a
:020000040000fa
:040330004003000086
:020000040000fa
:040334004003000082
:020000040000fa
:04033800400300007e
:020000040000fa
:04033c00400300007a
:020000040000fa
:040340004003000076
:020000040000fa
:040344004003000072
:020000040000fa
:04034800400300006e
:020000040000fa
:04034c00400300006a
:020000040000fa
:040350004003000066
:020000040000fa
:040354004003000062
:020000040000fa
:04035800400300005e
:020000040000fa
:04035c00400300005a
:020000040000fa
:100400008f8020000edf20000e0188000000000019
:10041000000020000000e000020032000001200087
:100420002002880014000700970007000000e00089
:1004300003003a00c06720000100200002003700de
:100440000000200001002000810f70000100320038
:1004500014000700000020000000e000020032004d
:10046000000002000000000044060200000000003e
:100470000040da000000fe004440a90060012000b6
:100480000000e0000300320000002000a00188000e
:100490004440a800000006008a1f78008b1f7800e7
:1004a0000000060091018800800478000000eb0045
:1004b0001a003700e284440032a0b4009905ba0063
:1004c000e284440032a0b4009906ba00e2844400f9
:1004d00032a0b4000006eb00476fde00fd07b2005b
:1004e000636ce10003003a00ebff07000000eb0043
:1004f0000a003700606ce10004003a00005deb0088
:100500008b05e900fdff3e00040037006168e10053
:10051000010032000086eb000b00070019c7ba008b
:100520001905ba000e04e00003003a000a00e000da
:10053000e0ff3a0000000600fe07b2009e018800be
:100540008a047800f5ff3700395dba008b05e900b1
:100550000c003200295dba008b05e900080032006a
:100560000c00e00003003a00e284440032a0b40032
:10057000f5ff370019ddba008b05e900faff3a00f4
:100580008904e800e184440032a0b40000000600c1
:100590003600f800809fbe00829fbe00849fbe0090
:1005a000869fbe000000fa009660a90011c0b3004b
:1005b000800c2000a201070080002000f600070048
:1005c00010168000640060000000e00003003a00a4
:1005d00010c0b30002e8b7001300370050168000c7
:1005e000700060000000e00009003a0020c0b30085
:1005f00002e8b70000c8bf000080fb000000e9006f
:100600004f00de000040780000e8b7000600370029
:1006100010168000700060000000e00002003a0048
:1006200030c0b30002e8b7008660a9009660a80059
:100630000080fa004f03be004f02be004f01be0013
:100640004f00be003600f90000400600801f780011
:100650000000fa0084e0a90011e1a90010c0b30075
:1006600004e8b7000080fa004f0078000040060060
:100670000000fa0087e0a9000080fa0000400600b0
:100680000040da000000fe00000005008000780055
:10069000040037003104e00002003a00000051007d
:1006a00000000600010178000108a300f9ff3a00ec
:1006b0008101780031017800f4ef2f00020242003e
:1006c0000281ea00020162000408280004016100be
:1006d000f7ff320083007800010178003104e00068
:0c06e000fdff3a00000051000000060081
:020000040000fa
:1006ec0061610000610d00000a0000006262000000
:1006fc00620d00000a00000063630000630d00003f
:0c070c000a0000000d0a000000000000c0
:020000040000fa
:100718000000fa00c802a900c822a800cc02a8005c
:100728008000280080118800113a8000000027000e
:100738008080600000002600808f500003003a008f
:10074800c0002000c011880010003700113a800056
:10075800000027008080600000002500808f500086
:1007680003003a00c0002000c011880007003700cd
:10077800113a800000002700008060000000e000bf
:1007880002003a0070062000c01188000000220014
:100798009011880087e0a90091058000f0ff2800eb
:1007a8008080600000002300010070009005880030
:1007b80097e0a80087c0a90091058000f08f2f005e
:1007c8000080600000a0a0009005880097c0a800e5
:1007d80031e2a8003342a8000080fa0000000600b9
:1007e8000400fa00004f78000e80e8000108780045
:1007f8000f0037000140fe00010037000000000034
:100808009111800000202000008060000000e000be
:10081800f8ff3a001e00fb00a01188000e80e800d7
:10082800100078008000e9000e80e80001087800d8
:100838000e80e800100078000000e000efff3a00aa
:10084800000000009111800000102000008060006e
:100858000000e000fbff32000080fa000000060004
:100868000a00fa00e800470080087800e200470024
:10087800010009008018eb008058eb000040eb00f5
:10088800004f78000040eb00004f7800150037005b
:100898009e81fb006800470010017800d0cc2c0036
:1008a8000010b8004308de006a00b90000007800b4
:1008b8000000510080407800030047000080e800f5
:1008c800014878006800470090007800d0cc2c00e0
:1008d8000008b800c308de00680047000108780077
:1008e8001e4fe8001e407800e44f5000e8ff360035
:1008f80050c0b300004f78000c0037001e80fb008a
:100908000000e900800047000e00e8008180e80050
:10091800114878000e00e800104078000043b0004d
:1009280011002000aeff07001e4fe9001e407800ae
:100938000004e000f1ff3a000080fa000000060021
:100948000400fa008e80e800800878000000eb00c0
:10095800000f7800070037000e80e80010007800cc
:100968001e00400010407800110020009cff070086
:100978001e0fe8000e80e8001000780041ff070015
:100988009e0f5000f4ff31000080fa0000000600be
:100998000400fa008e80e800800878000e80e800e5
:1009a80010007800e80f500003003a000040eb0008
:1009b800004f7800120037000e80e80090007800a1
:1009c800401f2000808f500003003a0060c6b3002b
:1009d800004f78000a0037000e80e8009000780089
:1009e80000022000808f500003003a0050c5b30079
:1009f800004f78000200370050c5b300004f780060
:100a080011028000000e2000010070001002880012
:100a1800213a8000f08f2f0000806000203a880083
:100a28001e01fb0080072000a1092000337420006c
:100a380080497800814978008249780012002000b6
:100a4800600420007105200023742000804978008c
:100a580081497800824978004207a8000000000018
:100a6800103a8000610060000000e000fcff3a00de
:100a780011028000f0f12f00008060001002880051
:100a88000080fa00000006000000fa0021e3a90037
:100a980001198000f0cf2f00008060000019880045
:100aa80001198000000e2000010070000019880064
:100ab8002043a9002003a80011198000f0ff21009d
:100ac80000806000101988002343a9002223a90090
:100ad8002203a9001119800030fc2f00008060005b
:100ae8001019880025e3a9002119800000f02100d1
:100af800010070002019880028e3a900411980002e
:100b080000ff2f00008060005000b30040198800eb
:100b18002ca3a9003023ef000080fa000000060093
:100b28000000fa0021e3a8002023a8002023a90040
:100b38000000000000198000610060000000e00073
:100b4800fcff320021e3a900001880000080fa00b1
:100b5800000006000000fa00c902a900cd02a900a1
:100b6800c082a8006800a8006000a800c882a80089
:100b78006820a8006020a800c042a8006bc0a80098
:100b880063c0a80061058000f0ff28008080600035
:100b98000000260001007000600588008660a9003a
:100ba8009660a8000080fa00000006000000fa0025
:100bb80002c8bf00e14f500003003a006037280028
:100bc8005fff07000c00370002c8bf00e24f50006b
:100bd80003003a00c037280059ff07000600370015
:100be80002c8bf00e34f500003003a002038280035
:100bf80053ff07004b0007000268ef000080fa006f
:100c0800000006000000fa0011a1a9001061a90067
:100c18001021a90031058000f0ff28000080600045
:100c280000d0a0003005880094e0a80084e0a90066
:100c38000080fa00000006000400fa00000f7800a7
:100c48000e80e800014878001e0078004400dd00ae
:100c5800600888000621ef00000220004cff070012
:100c680011e1a8000e80e80010407800e14f500024
:100c780001003a000140fe000080fa000000060072
:100c88000000fa000080eb0060198800ddff070013
:100c9800b0ff07009efe07007bff070080002000d2
:100ca8003bff07004087a90000c8bf000004e00020
:100cb800090032009aff0700e9fe07008038280083
:100cc8001fff070011c0b300800c2000daff0700e7
:100cd800800020002eff070000c8bf000004e000cd
:100ce80001003a000140fe00b0ff0700eeff3700a8
:020000040000fa
:100cf80000080000020000000000000002080000d8
:100d080002000000000000000408000002000000cb
:100d180000000000060800000200000000000000bb
:040d280000000000c7
:020000040000fa
:100d2c000000fa0040a7a8000080fa0000000600ae
:020000040000fa
:0200000401f009
:04000000ffffff00ff
:020000040000fa
:0200000401f009
:04000800ffffff00f7
:020000040000fa
:0200000401f009
:04000c0000000000f0
:020000040000fa
:0200000401f009
:040010005300000099
:020000040000fa
:0200000401f009
:0400140040000000a8
:020000040000fa
:0200000401f009
:040018009000000054
:020000040000fa
:0200000401f009
:04001c00c20000001e
:020000040000fa
:0200000401f009
:0400200017000000c5
:00000001FF
