:020000040000fa
:080000000002040000000000f2
:020000040000fa
:0400080008030000e9
:020000040000fa
:04000c0008030000e5
:020000040000fa
:0400100008030000e1
:020000040000fa
:0400140008030000dd
:020000040000fa
:0400180008030000d9
:020000040000fa
:04001c0008030000d5
:020000040000fa
:0400200008030000d1
:020000040000fa
:0400240008030000cd
:020000040000fa
:0400280008030000c9
:020000040000fa
:04002c0008030000c5
:020000040000fa
:0400300008030000c1
:020000040000fa
:0400340008030000bd
:020000040000fa
:0400380008030000b9
:020000040000fa
:04003c0008030000b5
:020000040000fa
:0400400008030000b1
:020000040000fa
:04004400c8020000ee
:020000040000fa
:0400480008030000a9
:020000040000fa
:04004c0008030000a5
:020000040000fa
:0400500008030000a1
:020000040000fa
:04005400080300009d
:020000040000fa
:040058000803000099
:020000040000fa
:04005c000803000095
:020000040000fa
:040060000803000091
:020000040000fa
:04006400080300008d
:020000040000fa
:040068000803000089
:020000040000fa
:04006c000803000085
:020000040000fa
:040070000803000081
:020000040000fa
:04007400da020000ac
:020000040000fa
:040078000803000079
:020000040000fa
:04007c000803000075
:020000040000fa
:040080000803000071
:020000040000fa
:04008400080300006d
:020000040000fa
:040088000803000069
:020000040000fa
:04008c000803000065
:020000040000fa
:040090000803000061
:020000040000fa
:04009400080300005d
:020000040000fa
:040098000803000059
:020000040000fa
:04009c000803000055
:020000040000fa
:0400a0000803000051
:020000040000fa
:0400a400d202000084
:020000040000fa
:0400a8000803000049
:020000040000fa
:0400ac000803000045
:020000040000fa
:0400b0000803000041
:020000040000fa
:0400b400080300003d
:020000040000fa
:0400b8000803000039
:020000040000fa
:0400bc000803000035
:020000040000fa
:0400c0000803000031
:020000040000fa
:0400c400080300002d
:020000040000fa
:0400c8000803000029
:020000040000fa
:0400cc000803000025
:020000040000fa
:0400d0000803000021
:020000040000fa
:0400d400080300001d
:020000040000fa
:0400d8000803000019
:020000040000fa
:0400dc000803000015
:020000040000fa
:0400e0000803000011
:020000040000fa
:0400e400080300000d
:020000040000fa
:0400e8000803000009
:020000040000fa
:0400ec000803000005
:020000040000fa
:0400f0000803000001
:020000040000fa
:0400f40008030000fd
:020000040000fa
:0400f80008030000f9
:020000040000fa
:0400fc0008030000f5
:020000040000fa
:0401000008030000f0
:020000040000fa
:0401040008030000ec
:020000040000fa
:0401080008030000e8
:020000040000fa
:04010c0008030000e4
:020000040000fa
:0401100008030000e0
:020000040000fa
:0401140008030000dc
:020000040000fa
:0401180008030000d8
:020000040000fa
:04011c0008030000d4
:020000040000fa
:0401200008030000d0
:020000040000fa
:0401240008030000cc
:020000040000fa
:0401280008030000c8
:020000040000fa
:04012c0008030000c4
:020000040000fa
:0401300008030000c0
:020000040000fa
:0401340008030000bc
:020000040000fa
:0401380008030000b8
:020000040000fa
:04013c0008030000b4
:020000040000fa
:0401400008030000b0
:020000040000fa
:0401440008030000ac
:020000040000fa
:0401480008030000a8
:020000040000fa
:04014c0008030000a4
:020000040000fa
:0401500008030000a0
:020000040000fa
:04015400080300009c
:020000040000fa
:040158000803000098
:020000040000fa
:04015c000803000094
:020000040000fa
:0402080008030000e7
:020000040000fa
:04020c0008030000e3
:020000040000fa
:0402100008030000df
:020000040000fa
:0402140008030000db
:020000040000fa
:0402180008030000d7
:020000040000fa
:04021c0008030000d3
:020000040000fa
:0402200008030000cf
:020000040000fa
:0402240008030000cb
:020000040000fa
:0402280008030000c7
:020000040000fa
:04022c0008030000c3
:020000040000fa
:0402300008030000bf
:020000040000fa
:0402340008030000bb
:020000040000fa
:0402380008030000b7
:020000040000fa
:04023c0008030000b3
:020000040000fa
:0402400008030000af
:020000040000fa
:04024400c8020000ec
:020000040000fa
:0402480008030000a7
:020000040000fa
:04024c0008030000a3
:020000040000fa
:04025000080300009f
:020000040000fa
:04025400080300009b
:020000040000fa
:040258000803000097
:020000040000fa
:04025c000803000093
:020000040000fa
:04026000080300008f
:020000040000fa
:04026400080300008b
:020000040000fa
:040268000803000087
:020000040000fa
:04026c000803000083
:020000040000fa
:04027000080300007f
:020000040000fa
:04027400da020000aa
:020000040000fa
:040278000803000077
:020000040000fa
:04027c000803000073
:020000040000fa
:04028000080300006f
:020000040000fa
:04028400080300006b
:020000040000fa
:040288000803000067
:020000040000fa
:04028c000803000063
:020000040000fa
:04029000080300005f
:020000040000fa
:04029400080300005b
:020000040000fa
:040298000803000057
:020000040000fa
:04029c000803000053
:020000040000fa
:0402a000080300004f
:020000040000fa
:0402a400d202000082
:020000040000fa
:0402a8000803000047
:020000040000fa
:0402ac000803000043
:020000040000fa
:0402b000080300003f
:020000040000fa
:0402b400080300003b
:020000040000fa
:0402b8000803000037
:020000040000fa
:0402bc000803000033
:020000040000fa
:0402c000080300002f
:020000040000fa
:0402c400080300002b
:020000040000fa
:0402c8000803000027
:020000040000fa
:0402cc000803000023
:020000040000fa
:0402d000080300001f
:020000040000fa
:0402d400080300001b
:020000040000fa
:0402d8000803000017
:020000040000fa
:0402dc000803000013
:020000040000fa
:0402e000080300000f
:020000040000fa
:0402e400080300000b
:020000040000fa
:0402e8000803000007
:020000040000fa
:0402ec000803000003
:020000040000fa
:0402f00008030000ff
:020000040000fa
:0402f40008030000fb
:020000040000fa
:0402f80008030000f7
:020000040000fa
:0402fc0008030000f3
:020000040000fa
:0403000008030000ee
:020000040000fa
:0403040008030000ea
:020000040000fa
:0403080008030000e6
:020000040000fa
:04030c0008030000e2
:020000040000fa
:0403100008030000de
:020000040000fa
:0403140008030000da
:020000040000fa
:0403180008030000d6
:020000040000fa
:04031c0008030000d2
:020000040000fa
:0403200008030000ce
:020000040000fa
:0403240008030000ca
:020000040000fa
:0403280008030000c6
:020000040000fa
:04032c0008030000c2
:020000040000fa
:0403300008030000be
:020000040000fa
:0403340008030000ba
:020000040000fa
:0403380008030000b6
:020000040000fa
:04033c0008030000b2
:020000040000fa
:0403400008030000ae
:020000040000fa
:0403440008030000aa
:020000040000fa
:0403480008030000a6
:020000040000fa
:04034c0008030000a2
:020000040000fa
:04035000080300009e
:020000040000fa
:04035400080300009a
:020000040000fa
:040358000803000096
:020000040000fa
:04035c000803000092
:020000040000fa
:100400004f8020000edf20000e0188000000000059
:10041000000020000000e000020032000001200087
:1004200020028800140007007b0007000000e000a5
:1004300003003a0000742000010020000200370091
:100440000000200001002000810f70000100320038
:1004500014000700000020000000e000020032004d
:10046000000002000000000076060200000000000c
:100470000040da000000fe004440a90040002000d7
:100480000000e0000300320000002000a00188000e
:100490004440a800000006008a1f78008b1f7800e7
:1004a0000000060091018800800478000000eb0045
:1004b0001a003700e284440032a0b4009905ba0063
:1004c000e284440032a0b4009906ba00e2844400f9
:1004d00032a0b4000006eb00476fde00fd07b2005b
:1004e000636ce10003003a00ebff07000000eb0043
:1004f0000a003700606ce10004003a00005deb0088
:100500008b05e900fdff3e00040037006168e10053
:10051000010032000086eb000b00070019c7ba008b
:100520001905ba000e04e00003003a000a00e000da
:10053000e0ff3a0000000600fe07b2009e018800be
:100540008a047800f5ff3700395dba008b05e900b1
:100550000c003200295dba008b05e900080032006a
:100560000c00e00003003a00e284440032a0b40032
:10057000f5ff370019ddba008b05e900faff3a00f4
:100580008904e800e184440032a0b40000000600c1
:100590000000fa0011e1a90084e0a9000080fa003f
:1005a000004006000000fa0087e0a9000080fa0081
:1005b000004006003600f800809fbe00829fbe000b
:1005c000849fbe00869fbe000000fa009660a900ce
:1005d000000220004e01070011c0b30000192000e6
:1005e000fe01070080002000490107008660a90085
:1005f0009660a8000080fa004f03be004f02be00c4
:100600004f01be004f00be003600f900004006005a
:100610000040da000000fe000000050080007800c5
:10062000040037003104e00002003a0000005100ed
:1006300000000600010178000108a300f9ff3a005c
:100640008101780031017800f4ef2f0002024200ae
:100650000281ea000201620004082800040161002e
:10066000f7ff320083007800010178003104e000d8
:0c067000fdff3a000000510000000600f1
:020000040000fa
:08067c000d0a0000000000005f
:020000040000fa
:100684000000fa00c802a900c822a800cc02a800f1
:100694008000280080118800113a800000002700a3
:1006a4008080600000002600808f500003003a0024
:1006b400c0002000c011880010003700113a8000eb
:1006c400000027008080600000002500808f50001b
:1006d40003003a00c0002000c01188000700370062
:1006e400113a800000002700008060000000e00054
:1006f40002003a0070062000c011880000002200a9
:100704009011880087e0a90091058000f0ff28007f
:1007140080806000000023000100700090058800c4
:1007240097e0a80087c0a90091058000f08f2f00f2
:100734000080600000a0a0009005880097c0a80079
:1007440031e2a8003342a8000080fa00000006004d
:100754000400fa00004f78000e80e80001087800d9
:100764000f0037000140fe000100370000000000c8
:100774009111800000202000008060000000e00053
:10078400f8ff3a001e00fb00a01188000e80e8006c
:10079400100078008000e9000e80e800010878006d
:1007a4000e80e800100078000000e000efff3a003f
:1007b4000000000091118000001020000080600003
:1007c4000000e000fbff32000080fa000000060099
:1007d4000400fa008e80e800800878008040eb0076
:1007e4000e00e800014878001100200000c2b300a8
:1007f400d7ff07001100200000c3b300d4ff070097
:100804001100200080c7b300d1ff070030c0b3003f
:10081400004f78001f0037001e00fb004200dd007f
:100824008e80e800910078000008de000040780027
:10083400ef4060000e00e800014878000e00e80078
:1008440010407800e94f5000070034000e00e80023
:100854001040780072c3b300824040000e00e800ec
:1008640001487800060037000e00e80010407800c8
:1008740002c3b300824040000e00e8000148780043
:10088400110020000e00e80010407800b0ff0700bf
:100894001e4fe9001e4078000004e000deff3d002a
:1008a4001100200000c2b300a9ff07008000eb0084
:1008b4000e80e800010878000080fa0000000600bd
:1008c4000600fa000e81e8000089be008040eb00bb
:1008d4000e00e800014878001100200000c2b300b7
:1008e4009bff07001100200000c3b30098ff07001e
:1008f4001100200080c7b30095ff070070c0b3004b
:10090400004f7800240037001e00fb004201dd0088
:100914000e80e8001000be00820178008301e90027
:10092400030033008100d1000080d300fbff3700b7
:1009340000407800ef4060000e00e80001487800b5
:100944000e00e80010407800e94f50000700340022
:100954000e00e8001040780072c3b30082404000eb
:100964000e00e80001487800060037000e00e80099
:100974001040780003c3b300834040000e00e80039
:1009840001487800110020000e00e80010407800b3
:100994006fff07001e4fe9001e4078000004e000ce
:1009a400d9ff3d001100200000c2b30068ff07001a
:1009b4006000b8000e81e8000089be000080fa00e3
:1009c400000006000a00fa00e800470080087800ea
:1009d400e2004700010009008018eb008058eb009a
:1009e4000040eb00004f78000040eb00004f78001f
:1009f400150037009e81fb00680047001001780055
:100a0400d0cc2c000010b8004308de006a00b90006
:100a14000000780000005100804078000300470087
:100a24000080e800014878006800470090007800e2
:100a3400d0cc2c000008b800c308de0068004700d2
:100a4400010878001e4fe8001e407800e44f500073
:100a5400e8ff36001100200000c2b3003cff07008d
:100a640050c0b300004f78000c0037001e80fb001c
:100a74000000e900800047000e00e8008180e800e3
:100a8400114878000e00e800104078000043b000e0
:100a9400110020002eff07001e4fe9001e407800c1
:100aa4000004e000f1ff3a001100200000c2b3008e
:100ab40027ff07000080fa00000006000400fa0087
:100ac4008e80e800800878000000eb00000f7800ba
:100ad400070037000e80e800100078001e00400078
:100ae400104078001100200019ff07001e0fe800d5
:100af4000e80e80010007800c7fe07009e0f50002b
:100b0400f4ff31000080fa00000006000400fa003f
:100b14008e80e8008008780050c5b300004f78004c
:100b24000e80e80010007800e80f500003003a003f
:100b34000040eb00004f78000f0037000e80e80003
:100b440090007800401f2000808f500003003a007e
:100b540060c6b300004f7800070037000e80e8003d
:100b64009000780000022000808f500002003a00bc
:100b740050c5b300004f780011028000000e200021
:100b84000100700010028800213a8000f08f2f00cd
:100b940000806000203a88001e01fb0080072000ce
:100ba400a10920003374200080497800814978002d
:100bb40082497800120020006004200071052000a2
:100bc40023742000804978008149780082497800a4
:100bd4004207a80000000000103a80006100600095
:100be4000000e000fcff3a0011028000f0f12f0049
:100bf40000806000100288000080fa0000000600f7
:100c04000000fa0021e3a90001198000f0cf2f00b1
:100c1400008060000019880001198000000e200087
:100c240001007000001988002043a9002003a800d7
:100c340011198000f0ff2100008060001019880065
:100c44002343a9002223a9002203a900111980002b
:100c540030fc2f00008060001019880025e3a900f3
:100c64002119800000f02100010070002019880083
:100c740028e3a9004119800000ff2f0000806000d4
:100c84005000b300401988002ca3a9003023ef00c2
:100c94000080fa00000006000000fa0021e3a8002a
:100ca4002023a8000002200098ff07001100200064
:100cb40000192000480007008000200093ff07006f
:100cc4002023a900000000000019800061006000da
:100cd4000000e000fcff320021e3a90000188000be
:100ce4000080fa00000006000200fa00c9e2a90030
:100cf4004fe7a8004fa7a9004f87a900713a8000c9
:100d0400f00f2f0000806000703a880080002000ff
:100d14007eff07000080eb006019880021000700b7
:100d24004000070056fe0700b5ff07000140fe0023
:100d340061168000001020000080600000f0a70011
:100d44000000ea000000e9004f00de0000407800e7
:100d54000080fb00610060004800dd006116800037
:100d64000180a1000100700060168800caff07001e
:100d7400000f78009e007800b0aa2a000008b8008e
:100d84004208de0080007800b0c2b30070fe0700a5
:100d94001e0078008efe0700e033280047ff07009e
:100da400e2ff37000000fa0011a1a9001061a900b8
:100db4001021a90031058000f0ff280000806000a8
:100dc40000d0a0003005880094e0a80084e0a900c9
:100dd4000080fa00000006000400fa00000f78000a
:100de4000e80e800014878001e0078004400dd0011
:100df400600888000621ef0011e1a8000e80e800d9
:100e040010407800e14f500001003a000140fe001c
:100e14000080fa00000006000000fa000080fa00da
:100e2400000006000000fa00c902a900cd02a900d2
:100e3400c082a8006800a8006000a800c882a800ba
:100e44006820a8006020a800c042a8006bc0a800c9
:100e540063c0a80061058000f0ff28008080600066
:100e64000000260001007000600588008660a9006b
:0c0e74009660a8000080fa000000060054
:020000040000fa
:100e8000000800000200000000000000020800004e
:0c0e900002000000000000000000000054
:020000040000fa
:0200000401f009
:04000000ffffff00ff
:020000040000fa
:0200000401f009
:04000800ffffff00f7
:020000040000fa
:0200000401f009
:04000c0000000000f0
:020000040000fa
:0200000401f009
:040010005300000099
:020000040000fa
:0200000401f009
:0400140040000000a8
:020000040000fa
:0200000401f009
:040018009000000054
:020000040000fa
:0200000401f009
:04001c00c20000001e
:020000040000fa
:0200000401f009
:0400200017000000c5
:00000001FF
