:020000040000fa
:080000000002040000000000f2
:020000040000fa
:040008009c03000055
:020000040000fa
:04000c009c03000051
:020000040000fa
:040010009c0300004d
:020000040000fa
:040014009c03000049
:020000040000fa
:040018009c03000045
:020000040000fa
:04001c009c03000041
:020000040000fa
:040020009c0300003d
:020000040000fa
:040024009c03000039
:020000040000fa
:040028009c03000035
:020000040000fa
:04002c009c03000031
:020000040000fa
:040030009c0300002d
:020000040000fa
:040034009c03000029
:020000040000fa
:040038009c03000025
:020000040000fa
:04003c009c03000021
:020000040000fa
:040040009c0300001d
:020000040000fa
:040044008a0300002b
:020000040000fa
:040048009c03000015
:020000040000fa
:04004c009c03000011
:020000040000fa
:040050009c0300000d
:020000040000fa
:040054009c03000009
:020000040000fa
:040058009c03000005
:020000040000fa
:04005c009c03000001
:020000040000fa
:040060009c030000fd
:020000040000fa
:040064009c030000f9
:020000040000fa
:040068009c030000f5
:020000040000fa
:04006c009c030000f1
:020000040000fa
:040070009c030000ed
:020000040000fa
:04007400c8020000be
:020000040000fa
:040078009c030000e5
:020000040000fa
:04007c009c030000e1
:020000040000fa
:040080009c030000dd
:020000040000fa
:040084009c030000d9
:020000040000fa
:040088009c030000d5
:020000040000fa
:04008c009c030000d1
:020000040000fa
:040090009c030000cd
:020000040000fa
:040094009c030000c9
:020000040000fa
:040098009c030000c5
:020000040000fa
:04009c009c030000c1
:020000040000fa
:0400a0009c030000bd
:020000040000fa
:0400a40094030000c1
:020000040000fa
:0400a8009c030000b5
:020000040000fa
:0400ac009c030000b1
:020000040000fa
:0400b0009c030000ad
:020000040000fa
:0400b4009c030000a9
:020000040000fa
:0400b8009c030000a5
:020000040000fa
:0400bc009c030000a1
:020000040000fa
:0400c0009c0300009d
:020000040000fa
:0400c4009c03000099
:020000040000fa
:0400c8009c03000095
:020000040000fa
:0400cc009c03000091
:020000040000fa
:0400d0009c0300008d
:020000040000fa
:0400d4009c03000089
:020000040000fa
:0400d8009c03000085
:020000040000fa
:0400dc009c03000081
:020000040000fa
:0400e0009c0300007d
:020000040000fa
:0400e4009c03000079
:020000040000fa
:0400e8009c03000075
:020000040000fa
:0400ec009c03000071
:020000040000fa
:0400f0009c0300006d
:020000040000fa
:0400f4009c03000069
:020000040000fa
:0400f8009c03000065
:020000040000fa
:0400fc009c03000061
:020000040000fa
:040100009c0300005c
:020000040000fa
:040104009c03000058
:020000040000fa
:040108009c03000054
:020000040000fa
:04010c009c03000050
:020000040000fa
:040110009c0300004c
:020000040000fa
:040114009c03000048
:020000040000fa
:040118009c03000044
:020000040000fa
:04011c009c03000040
:020000040000fa
:040120009c0300003c
:020000040000fa
:040124009c03000038
:020000040000fa
:040128009c03000034
:020000040000fa
:04012c009c03000030
:020000040000fa
:040130009c0300002c
:020000040000fa
:040134009c03000028
:020000040000fa
:040138009c03000024
:020000040000fa
:04013c009c03000020
:020000040000fa
:040140009c0300001c
:020000040000fa
:040144009c03000018
:020000040000fa
:040148009c03000014
:020000040000fa
:04014c009c03000010
:020000040000fa
:040150009c0300000c
:020000040000fa
:040154009c03000008
:020000040000fa
:040158009c03000004
:020000040000fa
:04015c009c03000000
:020000040000fa
:040208009c03000053
:020000040000fa
:04020c009c0300004f
:020000040000fa
:040210009c0300004b
:020000040000fa
:040214009c03000047
:020000040000fa
:040218009c03000043
:020000040000fa
:04021c009c0300003f
:020000040000fa
:040220009c0300003b
:020000040000fa
:040224009c03000037
:020000040000fa
:040228009c03000033
:020000040000fa
:04022c009c0300002f
:020000040000fa
:040230009c0300002b
:020000040000fa
:040234009c03000027
:020000040000fa
:040238009c03000023
:020000040000fa
:04023c009c0300001f
:020000040000fa
:040240009c0300001b
:020000040000fa
:040244008a03000029
:020000040000fa
:040248009c03000013
:020000040000fa
:04024c009c0300000f
:020000040000fa
:040250009c0300000b
:020000040000fa
:040254009c03000007
:020000040000fa
:040258009c03000003
:020000040000fa
:04025c009c030000ff
:020000040000fa
:040260009c030000fb
:020000040000fa
:040264009c030000f7
:020000040000fa
:040268009c030000f3
:020000040000fa
:04026c009c030000ef
:020000040000fa
:040270009c030000eb
:020000040000fa
:04027400c8020000bc
:020000040000fa
:040278009c030000e3
:020000040000fa
:04027c009c030000df
:020000040000fa
:040280009c030000db
:020000040000fa
:040284009c030000d7
:020000040000fa
:040288009c030000d3
:020000040000fa
:04028c009c030000cf
:020000040000fa
:040290009c030000cb
:020000040000fa
:040294009c030000c7
:020000040000fa
:040298009c030000c3
:020000040000fa
:04029c009c030000bf
:020000040000fa
:0402a0009c030000bb
:020000040000fa
:0402a40094030000bf
:020000040000fa
:0402a8009c030000b3
:020000040000fa
:0402ac009c030000af
:020000040000fa
:0402b0009c030000ab
:020000040000fa
:0402b4009c030000a7
:020000040000fa
:0402b8009c030000a3
:020000040000fa
:0402bc009c0300009f
:020000040000fa
:0402c0009c0300009b
:020000040000fa
:0402c4009c03000097
:020000040000fa
:0402c8009c03000093
:020000040000fa
:0402cc009c0300008f
:020000040000fa
:0402d0009c0300008b
:020000040000fa
:0402d4009c03000087
:020000040000fa
:0402d8009c03000083
:020000040000fa
:0402dc009c0300007f
:020000040000fa
:0402e0009c0300007b
:020000040000fa
:0402e4009c03000077
:020000040000fa
:0402e8009c03000073
:020000040000fa
:0402ec009c0300006f
:020000040000fa
:0402f0009c0300006b
:020000040000fa
:0402f4009c03000067
:020000040000fa
:0402f8009c03000063
:020000040000fa
:0402fc009c0300005f
:020000040000fa
:040300009c0300005a
:020000040000fa
:040304009c03000056
:020000040000fa
:040308009c03000052
:020000040000fa
:04030c009c0300004e
:020000040000fa
:040310009c0300004a
:020000040000fa
:040314009c03000046
:020000040000fa
:040318009c03000042
:020000040000fa
:04031c009c0300003e
:020000040000fa
:040320009c0300003a
:020000040000fa
:040324009c03000036
:020000040000fa
:040328009c03000032
:020000040000fa
:04032c009c0300002e
:020000040000fa
:040330009c0300002a
:020000040000fa
:040334009c03000026
:020000040000fa
:040338009c03000022
:020000040000fa
:04033c009c0300001e
:020000040000fa
:040340009c0300001a
:020000040000fa
:040344009c03000016
:020000040000fa
:040348009c03000012
:020000040000fa
:04034c009c0300000e
:020000040000fa
:040350009c0300000a
:020000040000fa
:040354009c03000006
:020000040000fa
:040358009c03000002
:020000040000fa
:04035c009c030000fe
:020000040000fa
:10040000cf8020000edf20000e01880000000000d9
:10041000000020000000e000020032000001200087
:100420002002880014000700c50007000000e0005b
:1004300003003a000088200001002000020037007d
:100440000000200001002000810f70000100320038
:1004500014000700000020000000e000020032004d
:1004600000000200000000008e08020000000000f2
:100470000040da000000fe004440a900a00820006f
:100480000000e0000300320000002000a00188000e
:100490004440a800000006008a1f78008b1f7800e7
:1004a0000000060091018800800478000000eb0045
:1004b0001a003700e284440032a0b4009905ba0063
:1004c000e284440032a0b4009906ba00e2844400f9
:1004d00032a0b4000006eb00476fde00fd07b2005b
:1004e000636ce10003003a00ebff07000000eb0043
:1004f0000a003700606ce10004003a00005deb0088
:100500008b05e900fdff3e00040037006168e10053
:10051000010032000086eb000b00070019c7ba008b
:100520001905ba000e04e00003003a000a00e000da
:10053000e0ff3a0000000600fe07b2009e018800be
:100540008a047800f5ff3700395dba008b05e900b1
:100550000c003200295dba008b05e900080032006a
:100560000c00e00003003a00e284440032a0b40032
:10057000f5ff370019ddba008b05e900faff3a00f4
:100580008904e800e184440032a0b40000000600c1
:100590003600f800809fbe00829fbe00849fbe0090
:1005a000869fbe000000fa00000000000828ef004f
:1005b000404080003040880030408000204088006b
:1005c00020408000104088001040800000408800db
:1005d00010168000640060000000e0000800320097
:1005e00010168000700060000000e000040032007f
:1005f00050168000700060000000e0003b003a00f0
:10060000cb02a900101680004200de0061406000ad
:100610008080fb00101680004400de006140600016
:100620000080fb0080804000501680004400de0007
:10063000614060000080fb00008040000000e0009e
:1006400003003a00100020004040880027003700d7
:10065000101680004200de00614060008080fb00d8
:10066000101680004400de00614060000080fb0046
:1006700080804000501680004400de006140600031
:100680000080fb0000804000e10f500003003c00b0
:100690001000200030408800140037001016800041
:1006a000640060000000e00003003a001000200039
:1006b000004088000d003700501680007000600078
:1006c0000000e00003003a00100020001040880005
:1006d0000600370010168000700060000000e00087
:1006e00002003a0010002000204088008660a90027
:1006f00040062000780207000080fa004f03be0089
:100700004f02be004f01be004f00be003600f90090
:10071000004006000000fa0084e0a90011e1a900f1
:100720000080fa00004006000000fa0087e0a900ff
:100730000080fa00004006000040da000000fe00e1
:100740000000050080007800040037003104e0005c
:1007500002003a000000510000000600010178008c
:100760000108a300f9ff3a00810178003101780007
:10077000f4ef2f00020242000281ea00020162004f
:100780000408280004016100f7ff320083007800ac
:10079000010178003104e000fdff3a000000510043
:0407a000000006004f
:020000040000fa
:1007a4005042000031200000616e0000642000000f
:1007b40050420000322000006172000065200000f9
:1007c400707200006573000073650000640000002f
:1007d4005042000032200000616e000064200000de
:1007e40050420000332000006172000065200000c8
:1007f40070720000657300007365000064000000ff
:100804005042000031200000616e000064200000ae
:100814005042000033200000617200006520000097
:1008240070720000657300007365000064000000ce
:1008340020500000423100002069000073200000b5
:1008440070720000657300007365000064000000ae
:100854002050000042320000206900007320000094
:10086400707200006573000073650000640000008e
:100874002050000042330000206900007320000073
:10088400707200006573000073650000640000006e
:10089400416c00006c2000005042000027730000ef
:1008a400205000007265000073730000656400004e
:0408b4000000000040
:020000040000fa
:1008b8000000fa00c802a900c822a800cc02a800bb
:1008c8008000280080118800113a8000000027006d
:1008d8008080600000002600808f500003003a00ee
:1008e800c0002000c011880010003700113a8000b5
:1008f800000027008080600000002500808f5000e5
:1009080003003a00c0002000c0118800070037002b
:10091800113a800000002700008060000000e0001d
:1009280002003a0070062000c01188000000220072
:100938009011880087e0a90091058000f0ff280049
:10094800808060000000230001007000900588008e
:1009580097e0a80087c0a90091058000f08f2f00bc
:100968000080600000a0a0009005880097c0a80043
:1009780031e2a8003342a8000080fa000000060017
:100988000400fa00004f78000e80e80001087800a3
:100998000f0037000140fe00010037000000000092
:1009a8009111800000202000008060000000e0001d
:1009b800f8ff3a001e00fb00a01188000e80e80036
:1009c800100078008000e9000e80e8000108780037
:1009d8000e80e800100078000000e000efff3a0009
:1009e80000000000911180000010200000806000cd
:1009f8000000e000fbff32000080fa000000060063
:100a08000400fa008e80e800800878008040eb003f
:100a18000e00e800014878001100200000c2b30071
:100a2800d7ff07001100200000c3b300d4ff070060
:100a38001100200080c7b300d1ff070030c0b30009
:100a4800004f78001f0037001e00fb004200dd0049
:100a58008e80e800910078000008de0000407800f1
:100a6800ef4060000e00e800014878000e00e80042
:100a780010407800e94f5000070034000e00e800ed
:100a88001040780072c3b300824040000e00e800b6
:100a980001487800060037000e00e8001040780092
:100aa80002c3b300824040000e00e800014878000d
:100ab800110020000e00e80010407800b0ff070089
:100ac8001e4fe9001e4078000004e000deff3d00f4
:100ad8001100200000c2b300a9ff07008000eb004e
:100ae8000e80e800010878000080fa000000060087
:100af8000600fa000e81e8000089be008040eb0085
:100b08000e00e800014878001100200000c2b30080
:100b18009bff07001100200000c3b30098ff0700e7
:100b28001100200080c7b30095ff070070c0b30014
:100b3800004f7800240037001e00fb004201dd0052
:100b48000e80e8001000be00820178008301e900f1
:100b5800030033008100d1000080d300fbff370081
:100b680000407800ef4060000e00e800014878007f
:100b78000e00e80010407800e94f500007003400ec
:100b88000e00e8001040780072c3b30082404000b5
:100b98000e00e80001487800060037000e00e80063
:100ba8001040780003c3b300834040000e00e80003
:100bb80001487800110020000e00e800104078007d
:100bc8006fff07001e4fe9001e4078000004e00098
:100bd800d9ff3d001100200000c2b30068ff0700e4
:100be8006000b8000e81e8000089be000080fa00ad
:100bf800000006000a00fa00e800470080087800b4
:100c0800e2004700010009008018eb008058eb0063
:100c18000040eb00004f78000040eb00004f7800e8
:100c2800150037009e81fb0068004700100178001e
:100c3800d0cc2c000010b8004308de006a00b900d0
:100c48000000780000005100804078000300470051
:100c58000080e800014878006800470090007800ac
:100c6800d0cc2c000008b800c308de00680047009c
:100c7800010878001e4fe8001e407800e44f50003d
:100c8800e8ff36001100200000c2b3003cff070057
:100c980050c0b300004f78000c0037001e80fb00e6
:100ca8000000e900800047000e00e8008180e800ad
:100cb800114878000e00e800104078000043b000aa
:100cc800110020002eff07001e4fe9001e4078008b
:100cd8000004e000f1ff3a001100200000c2b30058
:100ce80027ff07000080fa00000006000400fa0051
:100cf8008e80e800800878000000eb00000f780084
:100d0800070037000e80e800100078001e00400041
:100d1800104078001100200019ff07001e0fe8009e
:100d28000e80e8001000780084fe07009e0f500037
:100d3800f4ff31000080fa00000006000000fa000d
:100d480011028000000e20000100700010028800cf
:100d5800213a8000f08f2f0000806000203a880040
:100d68000001eb0080072000a10920003374200057
:100d78008049780081497800824978001200200073
:100d88006004200071052000237420008049780049
:100d980081497800824978004207a80000000000d5
:100da800103a8000610060000000e000fcff3a009b
:100db80011028000f0f12f0000806000100288000e
:100dc80081e0a9001061a90011a1a9001021a900c2
:100dd8001081a90010a1a90094e0a80084e0a9004e
:100de800a780a900a7a0a900a7c0a8002c83a800d5
:100df800c042a800c082a800c882a800c902a900f1
:100e08006800a8006820a8006bc0a8007000a900ae
:100e18007020a90073c0a9006000a8006020a80085
:100e280063c0a80061058000f0ff28008080600092
:100e38000000260001007000600588008660a90097
:100e48009660a800cd02a9000080fa000000060004
:100e58000000fa0061168000001020000080600089
:100e680000f0a7000000ea000000e9004f00de00e3
:100e7800004078000080fb00610060004800dd0051
:100e8800611680000180a1000100700060168800d2
:100e98000080fa00000006000000fa0030408000e0
:100ea800e10f500023003a001e00370010168000a2
:100eb800640060000000e00006003a0010168000a0
:100ec800700060000000e00002003a00203d2800a9
:100ed80086ff070010168000700060000000e00028
:100ee80006003a0050168000700060000000e00024
:100ef80002003a00a03e28007cff07001016800080
:100f0800640060000000e00006003a00501680000f
:100f1800700060000000e00002003a002040280055
:100f280072ff070030408000e10f5000dfff320001
:100f38003300370000408000e10f50000a003a00fb
:100f4800a041280069ff070003003700c0ff070021
:100f5800401f20005e00070000408000e10f5000a5
:100f6800faff32002600370010408000e10f5000e1
:100f78000a003a00a04228005cff0700030037007f
:100f8800b3ff0700007d20005100070010408000db
:100f9800e10f5000faff32001900370020408000ae
:100fa800e10f50000a003a00a04328004fff070055
:100fb80003003700a6ff070080bb2000440007009d
:100fc80020408000e10f5000faff32000c0037008b
:100fd80040408000e10f500008003a00a04428007b
:100fe80042ff0700cd02a80000000000404080003a
:100ff800e10f5000fdff320001003700cd02a900cb
:101008000080fa00000006000200fa00004f780095
:1010180081e0a80011028000000e2000010070008d
:1010280010028800213a8000f08f2f0000806000b5
:10103800203a88001e01fb0080072000a10920003b
:10104800337420008049780081497800824978000b
:101058001200200060042000710520002374200085
:101068008049780081497800824978004207a800c1
:1010780000000000103a8000610060000000e000fd
:10108800fcff3a0011028000f0f12f0000806000a0
:10109800100288000080fa00000006000000fa0034
:1010a8001061a90011a1a9001021a9001081a900af
:1010b80010a1a90094e0a80084e0a900a780a900d5
:1010c800a7a0a900a7c0a8000080fa000000060099
:1010d8000200fa00000f78000621ef001e007800d9
:1010e8004400dd006008880011e1a8000140fe000e
:0810f8000080fa000000060070
:020000040000fa
:10110000000800000a000000000000000a080000bb
:0c111000020000000000000000000000d1
:020000040000fa
:10111c000000fa0008ff0700dfff07005dff070073
:04112c00feff37008b
:020000040000fa
:0200000401f009
:04000c0000000000f0
:020000040000fa
:0200000401f009
:040010005300000099
:020000040000fa
:0200000401f009
:04001c00c20000001e
:00000001FF
