:020000040000fa
:080000000002040000000000f2
:020000040000fa
:04000800c003000031
:020000040000fa
:04000c00c00300002d
:020000040000fa
:04001000c003000029
:020000040000fa
:04001400c003000025
:020000040000fa
:04001800c003000021
:020000040000fa
:04001c00c00300001d
:020000040000fa
:04002000c003000019
:020000040000fa
:04002400c003000015
:020000040000fa
:04002800c003000011
:020000040000fa
:04002c00c00300000d
:020000040000fa
:04003000c003000009
:020000040000fa
:04003400c003000005
:020000040000fa
:04003800c003000001
:020000040000fa
:04003c00c0030000fd
:020000040000fa
:04004000c0030000f9
:020000040000fa
:04004400c8020000ee
:020000040000fa
:04004800c0030000f1
:020000040000fa
:04004c00c0030000ed
:020000040000fa
:04005000c0030000e9
:020000040000fa
:04005400c0030000e5
:020000040000fa
:04005800c0030000e1
:020000040000fa
:04005c00c0030000dd
:020000040000fa
:04006000c0030000d9
:020000040000fa
:04006400c0030000d5
:020000040000fa
:04006800c0030000d1
:020000040000fa
:04006c00c0030000cd
:020000040000fa
:04007000c0030000c9
:020000040000fa
:04007400d8020000ae
:020000040000fa
:04007800c0030000c1
:020000040000fa
:04007c00c0030000bd
:020000040000fa
:04008000c0030000b9
:020000040000fa
:04008400c0030000b5
:020000040000fa
:04008800c0030000b1
:020000040000fa
:04008c00c0030000ad
:020000040000fa
:04009000c0030000a9
:020000040000fa
:04009400c0030000a5
:020000040000fa
:04009800c0030000a1
:020000040000fa
:04009c00c00300009d
:020000040000fa
:0400a000c003000099
:020000040000fa
:0400a400d002000086
:020000040000fa
:0400a800c003000091
:020000040000fa
:0400ac00c00300008d
:020000040000fa
:0400b000c003000089
:020000040000fa
:0400b400c003000085
:020000040000fa
:0400b800c003000081
:020000040000fa
:0400bc00c00300007d
:020000040000fa
:0400c000c003000079
:020000040000fa
:0400c400c003000075
:020000040000fa
:0400c800c003000071
:020000040000fa
:0400cc00c00300006d
:020000040000fa
:0400d000c003000069
:020000040000fa
:0400d400c003000065
:020000040000fa
:0400d800c003000061
:020000040000fa
:0400dc00c00300005d
:020000040000fa
:0400e000c003000059
:020000040000fa
:0400e400c003000055
:020000040000fa
:0400e800c003000051
:020000040000fa
:0400ec00c00300004d
:020000040000fa
:0400f000c003000049
:020000040000fa
:0400f400c003000045
:020000040000fa
:0400f800c003000041
:020000040000fa
:0400fc00c00300003d
:020000040000fa
:04010000c003000038
:020000040000fa
:04010400c003000034
:020000040000fa
:04010800c003000030
:020000040000fa
:04010c00c00300002c
:020000040000fa
:04011000c003000028
:020000040000fa
:04011400c003000024
:020000040000fa
:04011800c003000020
:020000040000fa
:04011c00c00300001c
:020000040000fa
:04012000c003000018
:020000040000fa
:04012400c003000014
:020000040000fa
:04012800c003000010
:020000040000fa
:04012c00c00300000c
:020000040000fa
:04013000c003000008
:020000040000fa
:04013400c003000004
:020000040000fa
:04013800c003000000
:020000040000fa
:04013c00c0030000fc
:020000040000fa
:04014000c0030000f8
:020000040000fa
:04014400c0030000f4
:020000040000fa
:04014800c0030000f0
:020000040000fa
:04014c00c0030000ec
:020000040000fa
:04015000c0030000e8
:020000040000fa
:04015400c0030000e4
:020000040000fa
:04015800c0030000e0
:020000040000fa
:04015c00c0030000dc
:020000040000fa
:04020800c00300002f
:020000040000fa
:04020c00c00300002b
:020000040000fa
:04021000c003000027
:020000040000fa
:04021400c003000023
:020000040000fa
:04021800c00300001f
:020000040000fa
:04021c00c00300001b
:020000040000fa
:04022000c003000017
:020000040000fa
:04022400c003000013
:020000040000fa
:04022800c00300000f
:020000040000fa
:04022c00c00300000b
:020000040000fa
:04023000c003000007
:020000040000fa
:04023400c003000003
:020000040000fa
:04023800c0030000ff
:020000040000fa
:04023c00c0030000fb
:020000040000fa
:04024000c0030000f7
:020000040000fa
:04024400c8020000ec
:020000040000fa
:04024800c0030000ef
:020000040000fa
:04024c00c0030000eb
:020000040000fa
:04025000c0030000e7
:020000040000fa
:04025400c0030000e3
:020000040000fa
:04025800c0030000df
:020000040000fa
:04025c00c0030000db
:020000040000fa
:04026000c0030000d7
:020000040000fa
:04026400c0030000d3
:020000040000fa
:04026800c0030000cf
:020000040000fa
:04026c00c0030000cb
:020000040000fa
:04027000c0030000c7
:020000040000fa
:04027400d8020000ac
:020000040000fa
:04027800c0030000bf
:020000040000fa
:04027c00c0030000bb
:020000040000fa
:04028000c0030000b7
:020000040000fa
:04028400c0030000b3
:020000040000fa
:04028800c0030000af
:020000040000fa
:04028c00c0030000ab
:020000040000fa
:04029000c0030000a7
:020000040000fa
:04029400c0030000a3
:020000040000fa
:04029800c00300009f
:020000040000fa
:04029c00c00300009b
:020000040000fa
:0402a000c003000097
:020000040000fa
:0402a400d002000084
:020000040000fa
:0402a800c00300008f
:020000040000fa
:0402ac00c00300008b
:020000040000fa
:0402b000c003000087
:020000040000fa
:0402b400c003000083
:020000040000fa
:0402b800c00300007f
:020000040000fa
:0402bc00c00300007b
:020000040000fa
:0402c000c003000077
:020000040000fa
:0402c400c003000073
:020000040000fa
:0402c800c00300006f
:020000040000fa
:0402cc00c00300006b
:020000040000fa
:0402d000c003000067
:020000040000fa
:0402d400c003000063
:020000040000fa
:0402d800c00300005f
:020000040000fa
:0402dc00c00300005b
:020000040000fa
:0402e000c003000057
:020000040000fa
:0402e400c003000053
:020000040000fa
:0402e800c00300004f
:020000040000fa
:0402ec00c00300004b
:020000040000fa
:0402f000c003000047
:020000040000fa
:0402f400c003000043
:020000040000fa
:0402f800c00300003f
:020000040000fa
:0402fc00c00300003b
:020000040000fa
:04030000c003000036
:020000040000fa
:04030400c003000032
:020000040000fa
:04030800c00300002e
:020000040000fa
:04030c00c00300002a
:020000040000fa
:04031000c003000026
:020000040000fa
:04031400c003000022
:020000040000fa
:04031800c00300001e
:020000040000fa
:04031c00c00300001a
:020000040000fa
:04032000c003000016
:020000040000fa
:04032400c003000012
:020000040000fa
:04032800c00300000e
:020000040000fa
:04032c00c00300000a
:020000040000fa
:04033000c003000006
:020000040000fa
:04033400c003000002
:020000040000fa
:04033800c0030000fe
:020000040000fa
:04033c00c0030000fa
:020000040000fa
:04034000c0030000f6
:020000040000fa
:04034400c0030000f2
:020000040000fa
:04034800c0030000ee
:020000040000fa
:04034c00c0030000ea
:020000040000fa
:04035000c0030000e6
:020000040000fa
:04035400c0030000e2
:020000040000fa
:04035800c0030000de
:020000040000fa
:04035c00c0030000da
:020000040000fa
:100400002f8120000edf20000e0188000000000078
:10041000000020000000e000020032000001200087
:100420002002880014000700d70007000000e00049
:1004300003003a00809220000100200002003700f3
:100440000000200001002000810f70000100320038
:1004500014000700000020000000e000020032004d
:10046000000002000000000004090200000000007b
:100470000040da000000fe004440a900e00920002e
:100480000000e0000300320000002000a00188000e
:100490004440a800000006008a1f78008b1f7800e7
:1004a0000000060091018800800478000000eb0045
:1004b0001a003700e284440032a0b4009905ba0063
:1004c000e284440032a0b4009906ba00e2844400f9
:1004d00032a0b4000006eb00476fde00fd07b2005b
:1004e000636ce10003003a00ebff07000000eb0043
:1004f0000a003700606ce10004003a00005deb0088
:100500008b05e900fdff3e00040037006168e10053
:10051000010032000086eb000b00070019c7ba008b
:100520001905ba000e04e00003003a000a00e000da
:10053000e0ff3a0000000600fe07b2009e018800be
:100540008a047800f5ff3700395dba008b05e900b1
:100550000c003200295dba008b05e900080032006a
:100560000c00e00003003a00e284440032a0b40032
:10057000f5ff370019ddba008b05e900faff3a00f4
:100580008904e800e184440032a0b40000000600c1
:100590000000fa0084e0a9000080fa000040060094
:1005a0000000fa0087e0a9000080fa000040060081
:1005b0003600f800809fbe00829fbe00849fbe0070
:1005c000869fbe000000fa009660a900000220008d
:1005d000b202070011c0b300800c2000f90207002e
:1005e00080002000ad0207000a28ef005040800084
:1005f000404088004040800030408800304080000b
:10060000204088002040800010408800104080007a
:100610000040880010168000640060000000e000c8
:100620000800320010168000700060000000e0003a
:100630000400320050168000700060000000e000ee
:100640003b003a00101680004200de00614060006e
:100650008080fb00101680004400de0061406000d6
:100660000080fb0080804000501680004400de00c7
:10067000614060000080fb00008040000000e0005e
:1006800003003a0010002000404088002c00370092
:10069000101680004200de00614060008080fb0098
:1006a000101680004400de00614060000080fb0006
:1006b00080804000501680004400de0061406000f1
:1006c0000080fb0000804000e10f500003003c0070
:1006d00010002000304088001900370010168000fc
:1006e000640060000000e00003003a0010002000f9
:1006f0000040880012003700501680007000600033
:100700000000e00003003a001000200010408800c4
:100710000b00370010168000700060000000e00041
:1007200006003a0010002000204088000400370036
:100730001000200050408800010037000000000039
:10074000000220005502070011c0b300800c2000f9
:100750009c02070080002000500207008660a9006c
:100760009660a8000080fa004f03be004f02be0052
:100770004f01be004f00be003600f90000400600e9
:100780000040da000000fe00000005008000780054
:10079000040037003104e00002003a00000051007c
:1007a00000000600010178000108a300f9ff3a00eb
:1007b0008101780031017800f4ef2f00020242003d
:1007c0000281ea00020162000408280004016100bd
:1007d000f7ff320083007800010178003104e00067
:0c07e000fdff3a00000051000000060080
:020000040000fa
:1007ec00416c00006c20000050420000732000009f
:1007fc00707200006573000073650000640d0000ea
:10080c000050000042310000206100006e640000c6
:10081c00205000004233000020610000726500008f
:10082c0020700000726500007373000065640000a6
:10083c000d0000005042000032200000616e0000ec
:10084c006420000050420000332000006172000060
:10085c006520000070720000657300007365000075
:10086c00640d0000005000004231000020610000c7
:10087c006e64000020500000423200002061000035
:10088c007265000020700000726500007373000038
:10089c00656400000d000000504200003120000093
:1008ac006973000020700000726500007373000013
:1008bc00656400000d000000504200003220000072
:1008cc0069730000207000007265000073730000f3
:1008dc00656400000d000000504200003320000051
:1008ec0069730000207000007265000073730000d3
:1008fc00656400000d0000004e6f0000746800007d
:10090c00696e0000672000007072000065730000c3
:0c091c0073650000640d00000000000086
:020000040000fa
:100928000000fa00c802a900c822a800cc02a8004a
:100938008000280080118800113a800000002700fc
:100948008080600000002600808f500003003a007d
:10095800c0002000c011880010003700113a800044
:10096800000027008080600000002500808f500074
:1009780003003a00c0002000c011880007003700bb
:10098800113a800000002700008060000000e000ad
:1009980002003a0070062000c01188000000220002
:1009a8009011880087e0a90091058000f0ff2800d9
:1009b800808060000000230001007000900588001e
:1009c80097e0a80087c0a90091058000f08f2f004c
:1009d8000080600000a0a0009005880097c0a800d3
:1009e80031e2a8003342a8000080fa0000000600a7
:1009f8000400fa00004f78000e80e8000108780033
:100a08000f0037000140fe00010037000000000021
:100a18009111800000202000008060000000e000ac
:100a2800f8ff3a001e00fb00a01188000e80e800c5
:100a3800100078008000e9000e80e80001087800c6
:100a48000e80e800100078000000e000efff3a0098
:100a5800000000009111800000102000008060005c
:100a68000000e000fbff32000080fa0000000600f2
:100a78000400fa008e80e800800878008040eb00cf
:100a88000e00e800014878001100200000c2b30001
:100a9800d7ff07001100200000c3b300d4ff0700f0
:100aa8001100200080c7b300d1ff070030c0b30099
:100ab800004f78001f0037001e00fb004200dd00d9
:100ac8008e80e800910078000008de000040780081
:100ad800ef4060000e00e800014878000e00e800d2
:100ae80010407800e94f5000070034000e00e8007d
:100af8001040780072c3b300824040000e00e80046
:100b080001487800060037000e00e8001040780021
:100b180002c3b300824040000e00e800014878009c
:100b2800110020000e00e80010407800b0ff070018
:100b38001e4fe9001e4078000004e000deff3d0083
:100b48001100200000c2b300a9ff07008000eb00dd
:100b58000e80e800010878000080fa000000060016
:100b68000600fa000e81e8000089be008040eb0014
:100b78000e00e800014878001100200000c2b30010
:100b88009bff07001100200000c3b30098ff070077
:100b98001100200080c7b30095ff070070c0b300a4
:100ba800004f7800240037001e00fb004201dd00e2
:100bb8000e80e8001000be00820178008301e90081
:100bc800030033008100d1000080d300fbff370011
:100bd80000407800ef4060000e00e800014878000f
:100be8000e00e80010407800e94f5000070034007c
:100bf8000e00e8001040780072c3b3008240400045
:100c08000e00e80001487800060037000e00e800f2
:100c18001040780003c3b300834040000e00e80092
:100c280001487800110020000e00e800104078000c
:100c38006fff07001e4fe9001e4078000004e00027
:100c4800d9ff3d001100200000c2b30068ff070073
:100c58006000b8000e81e8000089be000080fa003c
:100c6800000006000a00fa00e80047008008780043
:100c7800e2004700010009008018eb008058eb00f3
:100c88000040eb00004f78000040eb00004f780078
:100c9800150037009e81fb006800470010017800ae
:100ca800d0cc2c000010b8004308de006a00b90060
:100cb80000007800000051008040780003004700e1
:100cc8000080e8000148780068004700900078003c
:100cd800d0cc2c000008b800c308de00680047002c
:100ce800010878001e4fe8001e407800e44f5000cd
:100cf800e8ff36001100200000c2b3003cff0700e7
:100d080050c0b300004f78000c0037001e80fb0075
:100d18000000e900800047000e00e8008180e8003c
:100d2800114878000e00e800104078000043b00039
:100d3800110020002eff07001e4fe9001e4078001a
:100d48000004e000f1ff3a001100200000c2b300e7
:100d580027ff07000080fa00000006000400fa00e0
:100d68008e80e800800878000000eb00000f780013
:100d7800070037000e80e800100078001e004000d1
:100d8800104078001100200019ff07001e0fe8002e
:100d98000e80e800100078007afe07009e0f5000d1
:100da800f4ff31000080fa00000006000000fa009d
:100db80040408000e10f500008003a00603f2800e2
:100dc800e6ff0700cb02a8000000000040408000ba
:100dd800e10f5000fdff32009600370030408000e0
:100de800e10f500027003a0080002000a90007000a
:100df80010168000640060000000e00007003a0060
:100e080010168000700060000000e00003003a0047
:100e180070402800d1ff07000a0037001016800034
:100e2800700060000000e00006003a0050168000e4
:100e3800700060000000e00002003a000042280054
:100e4800c6ff070010168000640060000000e00084
:100e580006003a0050168000700060000000e000b4
:100e680002003a0090432800bcff0700cb02a8000c
:100e78000000000030408000e10f5000fdff32000c
:100e88006c00370000408000e10f50001d003a0060
:100e9800800020007f00070020452800afff0700e2
:100ea800000220007b000700120037005116800066
:100eb800001020000080600000f0a7000000ea0099
:100ec8000000e9004f00de00004078000080fb00d1
:100ed800610060004800dd00511680000180a1001b
:100ee800010070005016880011c0b300401f200098
:100ef800b200070000408000e10f5000ebff320015
:100f08004c00370010408000e10f50001d003a00ef
:100f1800800020005f000700204628008fff0700a0
:100f2800000220005b000700120037005116800005
:100f3800001020000080600000f0a7000000ea0018
:100f48000000e9004f00de00004078000080fb0050
:100f5800610060004800dd00511680000180a1009a
:100f6800010070005016880011c0b300007d2000f9
:100f78009200070010408000e10f5000ebff3200a4
:100f88002c00370020408000e10f50001d003a007f
:100f9800800020003f000700204728006fff07005f
:100fa800000220003b0007001200370051168000a5
:100fb800001020000080600000f0a7000000ea0098
:100fc8000000e9004f00de00004078000080fb00d0
:100fd800610060004800dd00511680000180a1001a
:100fe800010070005016880011c0b30080bb2000bb
:100ff8007200070020408000e10f5000ebff320034
:101008000c00370050408000e10f500009003a0002
:10101800800020001f000700204828004fff07001d
:10102800cd02a9000000000050408000e10f5000f0
:10103800fdff32000080fa00000006000000fa0000
:10104800c902a900cd02a900c082a8006800a800b2
:101058006000a800c882a8006820a8006020a80036
:10106800c042a8006bc0a80063c0a800610580004a
:10107800f0ff28008080600000002600010070005a
:10108800600588008660a9009660a8000080fa00c4
:10109800000006000400fa008e80e800800878004e
:1010a80050c5b300004f78000e80e80010007800ab
:1010b800e80f500003003a000040eb00004f7800b2
:1010c8000f0037000e80e80090007800401f2000d5
:1010d800808f500003003a0060c6b300004f7800cc
:1010e800070037000e80e80090007800000220001a
:1010f800808f500002003a0050c5b300004f7800be
:1011080011028000000e200001007000100288000b
:10111800213a8000f08f2f0000806000203a88007c
:101128001e01fb0080072000a10920003374200065
:1011380080497800814978008249780012002000af
:101148006004200071052000237420008049780085
:1011580081497800824978004207a8000000000011
:10116800103a8000610060000000e000fcff3a00d7
:1011780011028000f0f12f0000806000100288004a
:101188000080fa00000006000000fa0011a1a90082
:101198001061a9001021a90031058000f0ff280086
:1011a8000080600000d0a0003005880094e0a8000e
:1011b80084e0a9000080fa00000006000400fa009c
:1011c800000f78000e80e800014878001e007800c3
:1011d8004400dd00600888000621ef0011e1a80046
:1011e8000e80e80010407800e14f500001003a00fe
:1011f8000140fe0011e1a9000080fa00000006008d
:101208000000fa00c9e2a9004fe7a8004fa7a9000b
:101218004f87a900713a8000f00f2f00008060000e
:10122800703a8800800020009aff07000080eb00d9
:1012380060198800d4ff070080ff0700b8fd070089
:08124800dafe0700feff37008b
:020000040000fa
:10125000100800000200000000000000000800006c
:101260000c000000000000000c080000040000005a
:08127000000000000000000076
:020000040000fa
:0200000401f009
:04000000ffffff00ff
:020000040000fa
:0200000401f009
:04000800ffffff00f7
:020000040000fa
:0200000401f009
:04000c0000000000f0
:020000040000fa
:0200000401f009
:040010005300000099
:020000040000fa
:0200000401f009
:0400140040000000a8
:020000040000fa
:0200000401f009
:040018009000000054
:020000040000fa
:0200000401f009
:04001c00c20000001e
:020000040000fa
:0200000401f009
:0400200017000000c5
:00000001FF
